:200000000C94041318951895189518951895189518951895189518951895189518951895B3
:200020001895189518951895189518951895189518951895189518951895189518951895F0
:200040000C94FC01189518950C94D4010C94A101189518951895189518951895189518958A
:2000600018951895189518950A011E07030701080701200708EB07011708012408015208B8
:20008000018C08017208055F071E920714C6070A0307014307099E0801A30801A608FB00E9
:2000A000E0EEF1E061E06683678311870087208331834283538308950E94A313A801A0EE50
:2000C000B1E0FD016185008517811A9529F01A95F1F01A95E9F1D8C01CE0138714E11487EF
:2000E00010E0E5D0013061F4662371F05F98289A0AE00287FA01D5D0078103950783C4C0F1
:200100000230B1F7662391F328985F9AF1CF1285112321F0012F0A950287B6C0013089F427
:20012000662399F05F98289A03E210E010938B0000938A0001E20093800001E000938100E9
:20014000DBCF023089F7662369F328985F9AECCF1385112309F498C01A9513879DD06A3F6A
:20016000704038F499D0665F7F4F70938B0060938A001385112309F087C010E0F901108313
:2001800096D0FD0114851A95148761F02481358162817381013009F595D040F501962817F6
:2001A000390768F500911802002309F46AC000913502013059F5E2E2F2E000811181E0E2FB
:2001C000F2E0208131810217130718F4022F20912202021B009357021EC0023019F772D04A
:2001E00040F401978217930750F4DCCF50D0D0F6F8CF4DD0B8F601962817390798F251D0D8
:2002000009E0038705E0028702E078CF023019F402E00093580200913E02002391F10091BF
:200220005702043038F01091570203E0109F0092570203C002E00093570202E00093580232
:200240002091570200E239D02091580202E235D000E00093180200915502002319F0009183
:20026000590202C0009157020093530200915602002319F000915A0202C00091580200934D
:20028000540200E0FD010683E4E00C94B3131196119706171707089560918A0070918B0049
:2002A000089500811181FD0104831583089510938000109381002A98089510E00E947E011D
:2002C0000C949B01FA01808191810D911C911197601771070895F999FECF12BD01BDF89AD7
:2002E00000B50895F999FECFF8DF21B532B52F5F3F4F32BD21BDF89A102FF2CFA895F9996F
:20030000FECFA8950FC0A895F999FECFA89512BD01BD30BD0AD0F999FECFA89501B512B5BE
:200320000F5F1F4F12BD01BD20BD0FB7F894FA9AF99A0FBF0895A895F999FECFA89501E0D9
:20034000089553D0E9E9F4E04ED7D801AE56BD4F0C910093C60047D74FD202831383208138
:2003600031810E94B20AB9F40091C1000F7D0093C10000E002830383008301830091C0004B
:2003800006FFFCCF0091C00000640093C0005A9800E0009351020E94C30918950C94600DA5
:2003A0000C94880C0C94981020D00E948B0A00915102002321F00091C60002A715C0068522
:2003C00017850730114018F000E0068707870091C60026853785D901AE56BD4F0C93068524
:2003E00017850DD206E901A7D6CFBA93AA93FA93EA93C4D04FB7089547D78A93FA93EA9336
:200400003A922A921A920A927A936A935A93B6D08FB70CE906BD06B102700E94CE100E9446
:20042000270A02890395028BEDEEF1E0C5D6E4D1E0D1168909B10072011719F400E0008FCF
:200440003FC0008D0395008F0330D0F1112311F000E001C000E2068B00E0008FADD69A968A
:200460002C919A972223C1F031A120A1321729F020E0D1962C93D19730A3123050F4D19655
:200480000C91D1970730C8F4D19603950C93D19714C000E0D196FACF013520E0120768F0D3
:2004A000CAD72083318324813581228333830E94800A248335830683178300E002870387ED
:2004C000178909B10074011719F400E0018F37C0018D0395018F033090F1112311F000E043
:2004E00001C000E4078B00E0018F91960C9191971489112331F0002311F008EC05C004E6B0
:2005000003C00023E1F702E3058F06892789222369F1002369F100E00E94510C2150304089
:200520003C932E931897112351F00589002339F00A95058B21F400E0048B01E0028F01A562
:20054000002331F00A9501A7002311F429D605AB8FBF20D75991699179910990199029900B
:200560003990E991F991899112D71895002399F201E00E94510C2F5F3F4FD2CF4A933A9309
:200580002A931A930A9308950E94A2133DD13AC0FC0102A9002351F0028D002339F426D176
:2005A00029F402A90A9502AB09F4C2D1FD0101810A3040F100E00183028103950283FC01AB
:2005C00001A5002309F025D6FC01008D002339F00A95008F21F4D4D5093009F4F5D5FD019E
:2005E00002810A3078F000E002830381039503838FD741F000A1002329F00A9500A311F414
:2006000001E0078F0091BD04002311F00E94B3118CE192E0FC0102890530A0F300E0028BEB
:20062000ABE5B2E00E94620CA895F8940085118506831783789449D2FC01428C01E0401658
:2006400011F404A104C002E0401639F406A1002319F404A9002309F0A3DEECD20C91043116
:2006600088F20FD6FD01018103950183FC0106A5002329F10A9506A711F54BD701F104A58B
:20068000002331F08BDE11F40FEF03C001E901C009E610E00E94E70D05A511E0411609F0DC
:2006A00045C0002309F449C028985F9A01E20093800001E00093810000AB08E700A7CAD687
:2006C0000E94A10D75D2F3D5EED2FC0105A9002311F00E94F50DFC0142A4058D002309F0F7
:2006E00053C00E94650CFC0159DEA1F403A9002389F00389002371F0068517850C3221E04D
:20070000120740F47CD0083C104021F4048515850E9479100E948B0C0E94E50CFC0103A5D8
:20072000002371F0442061F03BD60CC012E0411609F0BCCF002309F4B7CF5F98289AB6CFF2
:2007400000E001ABFC010789002391F000811181083C20E0120760F44FD000831183083C9E
:20076000104031F4DDD001E0FC01058F04E1068F07D5013061F414DE08EE13E03AD00E9482
:20078000850C0AE0068F03C0442009F0F6D2FC010689002309F004DE0E94620DB9D621F026
:2007A000D4D20E94250D02CF03A1002359F00A9503A341F4428153812481358115A5018D2A
:2007C0000E94500013D009F4E3CE9C012F5C3F4F8C010A5F1F4F0E945C0008D019F401E0B8
:2007E000FC0102A702E3FC0102ABD6CE0091E601CFC40287138708950F5F1F4F08950F5F6E
:200800001F4F068717870895A9D6F89491D005E004B904E80AB9439A08E007B900E800BFB9
:20082000A4D600E004BF00E80093610000E00093610004B703FF04C000E004BF66D00DC0C4
:200840000FEF14E32CE0015010402040E1F700C000005BD001E0009376028CE192E001E027
:20086000FC0102A7ADEEB1E009B10072FD01068B09B10074078B80D4FC0105A703E056D025
:2008800003A704E053D002A30AE04DD00483158308E049D00283138305E048D003AB02E132
:2008A00042D00487158708E141D0048B09E13ED0058B0AE1E2D4FD010087118701E236D047
:2008C00001AF03E233D002AF00E230D003AF02E22DD004AF06E02AD005AF07E027D006AF80
:2008E00058D10CE120D0008B118B95D603E310E023D078940E94AD1113D002E0FC0101A3C5
:20090000018F00E0028F038FF8C500916000086100936000009160000B600093600008954E
:2009200021E016E027C4A9D4FC01089526D4FCCF92D028985F9808955A981093C500009356
:20094000C40008E90093C10006E00093C2000895DAD501E0048FA1E0B2E00C93199602E34D
:2009600002AB0AE006A700EF00A308EC0C93189705E00C93179685D412970C931496009350
:20098000E60102A707A70C9301AB028D018F02A10023A9F005A5A281B38124813581C9012A
:2009A0000A978A179B0710F4002331F01A97A217B30728F4002319F02AE0D8D301C043984E
:2009C0009CC530D60C919497002329F495960C919597002321F030D011F033D00CC0B8DF19
:2009E00000E097960C93169633D019F028985F9A02C05F98289AEED5CAC446D4A2E4B2E0DC
:200A00000C919697002329F497960C919797002321F012D011F015D00CC09ADF00E0959688
:200A20000C93189615D019F05F98289A02C028985F9A02E00C93ABC491960C919197023039
:200A4000089500E09C960C9351970C93129708950C915397002300E00093800000938100CA
:200A60002A98089511D451D5028D018F00E0028FF3DF048F439AA1E0B2E00C931E960C9335
:200A8000149707A70C9314970C93129601AB04A702E303A31C915C9702A1002331F41123CB
:200AA00021F001E09B960C939B9704A1002311F001E005A306A1002311F001E007A3112366
:200AC00019F081D7048FB3D562C40E94A113ACE1B2E079D704A306A304AB60DC09F056C065
:200AE00058D020AD822F90E00A9607A8402C55240AE0400E551C30E0112462817381468120
:200B000057812480358005A50023E1F48101041915094017510708F435A3860F971F8417DC
:200B2000950708F437A32018330A4215530510F001E004A3260F371F0E949010E0F001E019
:200B400006A319C0420C531C4416550608F435A38B01081B190B4017510708F437A3020C67
:200B6000131C0416150610F001E004A3621B70404617570720F7CFD402A1002339F004856F
:200B800015854017510711F40BD304ABE6E00C94B11301AD002311F005AD01C003AD07ABA9
:200BA00002AD002311F006AD01C004AD00AF08956BD3AFE5B2E007D707830187068303878A
:200BC0000E946212A2D40535E1F41389112341F411E0138B16961C93169720E02687278783
:200BE000FD011085112311F010E010870333A1F40285002319F401E00287018700E00487C7
:200C0000C6C310E0138B013159F7FD011085112319F411E0108717831285112311F010E089
:200C200012870C3C59F70485002351F701E004870387E6CFE1E8F2E00285039502874B9BBB
:200C400004C003850395038703C00585039505874C9B04C004850395048703C00685039578
:200C6000068702850832F0F01685048523852F3058F02585283040F00F3020F0183010F00A
:200C800004E009C001E007C00F3020F0183010F002E001C000E0018700E0028705870687DB
:200CA000038704870895E1E8F2E000E00083028304830683008701851785011719F406E03B
:200CC000008B089510891A95108BD1F427810023C1F41181112319F411E01083118310E0E9
:200CE00013830230C1F41581112319F411E014831583222321F010E0178311E0108707878A
:200D0000089510E01183013051F71381112319F411E01283138310E01583043051F72223FF
:200D200071F711E016831783EACF006600937C0006EC00937A0000E000937B0000917A0001
:200D400006FDFCCF0091790008959ED22897F894ADEEB1E044E050E09D018E010E94C01341
:200D6000789406E0E2DF5B960C935B970C3618F001E05C960C9328960AC30E949813ACE11D
:200D8000B2E0FD01E7888FE592E0FC0104850023B1F40085002399F4FD010389002379F4D1
:200DA000FC010285002359F40785002341F40289002329F40589002311F4EE2029F008EEBD
:200DC00013E0FD0116DD04C0FD01F6D1012B21F0F3D1015010400DDDEFD1012B19F400E041
:200DE000068FF1D1FD01C6884680578071A0FC019680B184D384658C8780A48CF3D6E8E644
:200E0000F0E00C945313CED1EDD60395068FA3C1AA2031F0BFD109F09EC102E0D6D19BC151
:200E2000AFD1033081F3882049F4992039F4BB2029F4CC2019F4073009F08DC1C4D18BC170
:200E4000AA2029F0A7D109F086C104E0E7CF98D10630A1F4A5D1048B21E008E1A0D1058B39
:200E600021E009E1D7D388D1FD0105A701E003A7CFD3AFD3A9D104E6FD01C8CF9920F1F692
:200E8000CC20E1F668C1AA2011F084D164C1882019F088D10EE186DA992019F083D100E5CD
:200EA00081DABB2019F07ED10CE37CDADD2029F4FD010689002309F44EC105E6DDCFAA2028
:200EC00021F7882031F1772019F005E6FD0120C0FD0101AD002399F40481158140165106A3
:200EE00018F4041905AF02C0401A45AE25AD06E056D101AF21E001E2A7D207AB08C003ADF0
:200F000007AB00E001AF20E001E25CD505A304E6068F3CD191F60681002379F601850023FE
:200F200061F6C6CFAA2009F0B0CFBB2029F1772019F005E6FD011FC0FD0102AD002391F4D1
:200F400052D14016510618F4041906AF02C0401A46AE26AD07E023D102AF21E071D206AD7D
:200F600000AF08C004AD00AF00E002AF20E003E229D507A304E6068F09D119F02AD30E947B
:200F80009710F1D009F099CF0681C9CFAA2009F07CCF9920C9F0772011F005E614C0FD0194
:200FA00003A9002321F000E003AB37D30AC001E003AB21E005E045D2A3D22487358702E1A4
:200FC000BBD329D304E6EED9E1D009F076CFCCD009F073CFA3CFEE2009F416CF9ED30CDC55
:200FE0001C930E931196BAD0D1F416E0C3D0D8D006AB05AB82E992E005E5FC010083FD01D4
:2010000020893189FC013183228304E0038301E004830E94811030E00E9477109CC01196D6
:201020001197093E134008F496C0A9D224CF75D395D018F405E0C9D0E7CE11961197083E2D
:20104000134008F088C0E0CE9BD0033041F420E013E090D0C7D50E5F068FA5D001C0AFD0D6
:20106000BB2019F0B3D10E9497108DD079F0FD0103A5002319F000E003A704C001E003A74E
:2010800000E001AB23A503E00E9496107FD019F0A3D50395068F67D009F40ACF9DD50D5FE9
:2010A000068F06CFAA2009F0F0CEDD2029F060D004E0601608F47AD0EE2049F089D038F097
:2010C000FC01258DFD01248B08E10E9496105BD009F0F3CE49D009F0F0CE0185002309F02C
:2010E000ECCE39C0AA2009F0D0CE882029F040D003E0601608F45AD0EE2031F069D020F014
:20110000FC01258D0E9493103ED009F0D6CE0385002309F0D2CEE1CFAA2021F03BD0D9F489
:2011200008E07CCE2DD04BD02BD0063009F0C0CE4BD025E01BD006E6FD01B2CF25E013E03F
:2011400019D006E699CE2AE011E0FACFFD0101A5002309F473CEEFE00C94A8131197043F75
:2011600021E012070895FC01078112C011E002C021E013E003E044C002E010E00C946B01F5
:201180000091BE040895FC01068102C0FC01038500230895FC010A2D0A95048F08953AD2C5
:2011A00001E050C1E5DF02E3FC01F7CFFC01058D0395058F08E2F1CF028513850895073079
:2011C00009F401D0089512C000E00093BE0408950D911C910F5F1F4F1C930E93119611973A
:2011E000093C10400895028113810895439A8DD100E001A7EADF068F058F06AB01AB08955A
:20120000DED3038F108F218F0FEF00934502028F08953AD0D4D3068D002359F4038D128D53
:20122000112359F0033009F4439800E0028F008D068F068D0A95068FAAC0033009F4439A55
:201240000FEF028F018D002391F30A95018F79F7439AA5E4B2E015D099970789002361F317
:2012600000E0078B00E309D00233104029F709E0ACDF04E6FD01008FDFCF10E00C947201FF
:20128000C9D100E00C930895BA93AA93089500E0329B01E0359B02C0349B0260349B02C08F
:2012A000359B0460349B02C0359908600895ECDF3CD4EDDFAFE5B2E0FD0110A1278D222321
:2012C00019F02A9569F00EC0011729F005E001A3078D0395078F0789002309F026D457C0E6
:2012E000011711F400E0F6CF21A12A9521A399F7102710FB96F42CE132E040A140FF06C086
:2013000041E0468B40E0F901478B07C041E0F901468B478B40E04083418311FB7EF4FD0147
:2013200020A121FF05C021E0268720E0278706C021E02587278720E02083218312FB7EF4C4
:20134000FD0120A122FF05C021E0218B20E0228B06C021E0208B228B20E02283238313FB16
:201360007EF4FD0110A113FF05C011E0148B10E0158B06C011E0138B158B20E02483258311
:20138000FD0100A3AFCF4FBF05D0E991F991A991B9910895099119912991399149910895E7
:2013A000B4D001A9073069F405A510910D02112349F4002349F402E0038F01E004A700E060
:2013C00001AB08950023B9F701E0F6CF5DDF01D13ED005A5002311F000E001C001E005A733
:2013E00025A502E02ED00481158125D024833583028313830AE022D01ED008E01FD003AD68
:2014000024AD23AF04AF00E21CD024AD02E21CD026AD25AF06AF06E014D026AD07E011D046
:2014200001AD22AD21AF02AF01E20BD022AD08D0B0DB4BDBACCF2281338108957BD102C01B
:2014400003E2E8D0FD010895FCDF05AD0895ACE1B2E0F8CF58D0058D002309F04EC059D037
:2014600009F44BC007A5002309F047C029D309F044C087A990E04996A0ADB0E0599640D041
:20148000028D42815381648175816417750700F5013031F4860F971F8217930738F42DC072
:2014A000023059F54A1B5B0B3BD638F111E017A732D0138D1F3130F01FEA178F0130B9F459
:2014C00000A518C0133110F017E8F7CF1FE5F5CF013029F4681B790B26173707DFCF02300E
:2014E00061F4A40FB51FA217B30738F0DFCF023021F407A1002309F0078FE4E00C94B313FC
:201500002681378108950E94A313ECE1F2E00895FC01048D3DCEEDEEF1E008951FD0FBDF90
:2015200004871587A2E2B2E0BED11797A801055018D028F4CA0105962817390758F001E021
:2015400002A3FD0105A542175307002320F421F001E0038FD2CFE1F302E0FBCF0C94A31359
:20156000035010400217130708950CE906BD00E004BD02E005BD01E000936E000895EEDFAF
:201580000E94F912A0E3B2E001E00D9321E008E141D020D0589621E009E172DE149620E04A
:2015A00002E06EDE169716D05B9732D00EEF0D930C932EEF3EEF0CE1BDD080E02FEF082FC1
:2015C00010E00E571F4F21D083958431B8F301D094CF02C001E056CE25D000E00D930D93CF
:2015E0000D930C9315970C93519620E004E048DE169613D010D000E00D9320E001E240DE80
:20160000599720E003E206D014CA0E947E0103C021E003E004D00C949B0120E005E010E094
:201620000C947E01BA93AA93A0E4B2E008952CDEA5E3B2E00C9118961D912C919297222306
:20164000C1F0112309F464C0023029F4F894129664D013965ED059960C915997013029F42C
:20166000F89414960D911D9154D000E091960C934FC0123031F59D962C919D97013061F4FD
:201680000FEF1FE752D0222311F01FEE02C000E010E146D001E00DC0023069F40FEF1FE7E7
:2016A0003FD0222319F000E010E101C01FEE3DD002E000939D0443D0589678940C910A95C2
:2016C000D6CF113029F510919D040117F9F01696EAD01797023021F41296D6D0139705C0AB
:2016E000013019F41496D0D015971496DCD013970AE020D0D8D05E9608E01CD00C910A9530
:201700000D9368DF21E004E085DF02C018D078943ECE19D01997789408950D911C910895AD
:2017200012960D931C931397089514960D931C931597089501D06FCF10E00C948301F8947A
:201740000FEF1FE716960D931D930D931C930895DADEA0E1B2E00C9193970023E9F000E02F
:201760009396ABD09C97002329F450968DD05B9601E010C05096D1DF519781D0B0F7F0DE29
:20178000A0F79C969FD09C97033030F0048115818DD09C960C939C9794960C9194970023FA
:2017A000E1F000E0949689D09D97002329F452966BD05A9601E00FC05296AFDF53975FD02F
:2017C000B0F7CEDEA0F79D967DD09D97033028F00ADD6CD09D960C939D979BDEF1F15296B4
:2017E00062D05A961C915D978D919C915B96468157816C919C97028D02801380248035801E
:2018000002141304B8F4013049F4662339F003968417950718F460E0FD0164A71123E9F09D
:201820000230D9F42350304042175307B0F4CBD005A713C0013049F4662339F0039748173C
:20184000590718F460E0FD0164A7112331F0023021F42D5F3F4F64D450F3FD0105A10023DB
:2018600029F000E005A304A512D000A706A1002329F000E006A305A50AD007A33ECEC80126
:2018800003962817390708952D933C930895013011F40AEA0895023011F408EC089500E0F8
:2018A000089501A318962D913C91089506831783F894008711877894F2CF0C93199620DE2A
:2018C0000C9108950C910395DDCC1B2F2A2F1DDEA5E6B2E00C911396002309F019D00C914D
:2018E0001297002311F002E0038F0C911496002311F001E0038F0C91002321F009D005D04A
:201900000AE5068FA22FB12F089501E0058F089500E0038F08955B2F6A2F51D01389A6E36B
:20192000B2E00C911697208935854C9154974A9539F04A95B9F04A9549F14A9551F139C0DD
:20194000112319F010E0FD01138F332319F077D0FD01138F222369F10230B1F400E0FD0120
:20196000038F27C00685002321F000E05B960C935B970189002311F026D0038F332311F040
:201980000FDC038F2223A9F002E0E9CF1123A1F7F5CF332311F4222361F0002331F4FD018B
:2019A000018D013041F402E0DBCF0130B9F20230A9F2A62F05C10230E1F701E0D1CFEFE504
:2019C000F2E0089527DE00E03DCD3B2F4A2FA1E8B2E0FD012481128198DD05890A9529F0BA
:2019E0000A9599F00A9509F10DC0112311F001E0038F222311F002E0038F0C91002311F036
:201A000000E0038FA42FB32F0895112339F4222329F416960C911697002311F001E0038FB2
:201A20000C91002379F302E0ECCF028D112311F006D0138F222331F30230A9F7E1CF013085
:201A400011F410E0089511E008951EDCACE1B2E00DEE11E0F801258D222331F02A95258FDD
:201A600019F421E0248F03C0248D2223D1F0FD01228D37A5332351F0213019F41ED025A3F7
:201A800007C0223041F419D026A307C0213019F414D023A304C0223011F40FD024A393DF44
:201AA000038FFD010DD009F453DEFD01078D002319F000E0078F038F6ACC21E0F8010895F8
:201AC00001A166CB22DD128D038D011769F1112371F01A9519F01A9529F00895023021F49A
:201AE0000C9432050130E1F30023F1F4F9CF13A11123D1F41091E601112321F00EE100933E
:201B00009E04089510919E04112331F0EEE9F4E0012F0A9500830895013011F40C94E10499
:201B2000023011F40E94FD04089500E00093320246DF068B05870687008B018B038B048B84
:201B400008955B2F0A2EADEEB1E0FD01278D30E0DCDC47A500A9002311F100A5002311F0FD
:201B60000A9500A700A5002391F4AADF11F001E901C00FEF60918A0070918B006017704071
:201B800028F420D00E5F1F4F22D001C030AB442331F018D00217104020F030AB02C04423E3
:201BA00071F020D0002359F40DD02017310728F409D0025010400BD002C001E0068FA02DA1
:201BC000B52F089500918A0010918B00089510938B0000938A000895CBDA08E2FC01048F99
:201BE00001E0058FFD01068D08950E949A1382E992E0FC013481032F10E029DC52A5FC0149
:201C0000258149E9642E43E0742E85DC46A5442369F04A9509F4C3C04A9509F4E6C04A95C9
:201C200009F44BC14B5109F45AC14FC2F894A684B78478941687178707E0A016B10618F43E
:201C4000C2DE05AB42C2FC0100810535C9F7C380FD0180889188FC0122815181FD0106A937
:201C6000013059F0022F252B21F403E0C01641F708C08016950629F0E3CF552309F72223E2
:201C8000F9F6A5014250504038D28A0D9B1D0297FC01212F3081231799F61181011781F6B3
:201CA00001E0C01639F002E0C01621F003E0C01609F00BC230DC06A7F30190828182FD013C
:201CC000C5A4FEDE19F00FEFF30144C047A8552480AD90E04681578184809580A280B380AE
:201CE000A814B904D0F4841895084815590510F004E629C08C010A0D1B1D0417150718F0C5
:201D0000F301528222C04A195B09481B01D28A189B08881A9508A40114C0A81AB5084A1541
:201D20005B0530F78201080D191D0417150740F7481959094419ECD1A818B908A418B50809
:201D4000A5010E941E13F3010283CC2021F004E61281011B0283C382FD0103A5002311F463
:201D600001E001C000E0F3010483FD01058D002311F003E001C0028DF3010583FD01048978
:201D8000F30107A3FD0105890A95F30100A703EA1EEF610E10E0711EF301008396C140E009
:201DA00016A7FC0124830AC0242F30E0B90193D15081FC01E40FF11F55834395FC01A481D4
:201DC0004A1790F3B0E0AD014B5F5F4F93D1EA0FFB1F1583FC01248130E0E20FFB1F068334
:201DE000FC012481295F3F4F6FC1552319F4FD01138F6BC116A731E0FD01358F40E009C031
:201E0000642F70E0FC01E40FF11F368164D1308343954217A8F3FD0106A9013019F558D15F
:201E20000081002309F451C10F3F09F44EC10181002309F44AC10F3F09F447C13081FD01E6
:201E4000008B318B232F0CE1E0DB42D121810DE1B9DD06AB3DD10081FC01018339D10181BB
:201E6000FC01028335D10381FD0115A5011709F0ADDAFD0103A52CD11481101769F4002327
:201E800011F0A1DD01AB112311F401E001C000E0FD0103A723A5BDDB1BD127A1253008F053
:201EA00014C1FD01248B08E1B5DB12D120A5233008F00BC1239537D100C1343051F03730DB
:201EC00041F0383031F0393021F03A3011F03B3019F4552309F48BCF0EE106A7F6C016A70D
:201EE000022F0F571F4FFD0141A13A95B1F03A95B9F03A95B9F03A95B9F0335009F459C08C
:201F00003A9509F459C03A9509F459C03A9509F461C03A9509F4A8C0D8C001E0038FAFC05C
:201F200002E0FCCF00E0FACF442309F040C055A4552021F004E6FC01021B0583FC0145801E
:201F4000042D10E0FD0120AC332407A81124E5D090F440195040043610F08A011FC0310163
:201F6000620E731E442011F4830118C0421B530B4219504010C022193040043610F08901B6
:201F80000DC03001640E751E442071F3241B350B20193040A901A5D0060D171DAAD05520F9
:201FA00009F46DC004E60419FC01058368C00FEFFBCFABDC0EDB62C0A8DCE1DA5FC0442324
:201FC000B1F72223A1F3253190F721E0258F80D0228153C00E946B0110E0FD0121A12223E5
:201FE00031F70F3F110719F3FC0125812223F9F22531E8F6FD0125A5222329F024E630E000
:20200000201B3040890100AC112467A970E085D0A0F4461B50400436110510F08A0122C0B3
:202020002001420E531E602F612B11F482011AC0421B530B4019504012C0201930400436E8
:20204000110510F089010EC02B01440E551E002E012A61F3241B350B261B3040A90141D089
:20206000040D151D46D00BC0222309F4A0CF253108F09DCF21E0258F2FEFC7DA58D0FC0138
:202080000181002309F4DCCD0281002309F4D8CD0481013041F0023031F0033021F00730F8
:2020A00011F0083011F42DD00EC0043031F0093021F00A3011F00B3041F446E050E01AD08D
:2020C0001683078328E030E012D0EDE00C94AA13E9E9F3E00895600F711FF301E60FF71F79
:2020E00008950E94161344E650E00C941E138C014AC014CA02D00C9494049C010FEF1FEF25
:202100001AC045E050E0F6DF1583068327E00895504004E610E00C941613448155818BD9C4
:20212000241735070895FD01258B09E173DA04E6FD01068F08950E94A113C901DA01442429
:20214000552409C09801FC010191CF010CD021E0420E20E0521E4A165B06A0F3302F012FC5
:20216000132F0C94C605202748E0022F017036952795013021F401E010EA202731274A957B
:20218000A1F7890108955A9AE9E9F4E0208331830091C10000620093C1000895E9D1302FD1
:2021A000AFE9B4E0FD01068D002309F0C6C0278950E0608D062E112406890A9509F480C01F
:2021C0000A9509F45AC00A9531F00A9599F00A9509F49EC0AEC0332331F404E0068B062FD4
:2021E0000395008FAAC0B5D00C3008F4A6C0FD01568BA3C0228C8D01020D151F332341F1E2
:2022000033E0368B020E151E418D0416150624F4022F0395078B91C0621749F391D0621751
:2022200018F4032F0160008BFD01508F01E0078B038D0395038F102F177019F4128D139550
:20224000128F083209F079C0568B01E0068F75C0362F3395308F338D373251F471D02630F4
:2022600018F0032F0160008B01E0FD01068FBFCF008D0B3008F461C0BACF3323C1F069D088
:20228000048D0395048F023008F457C0548F693018F00789063020F002E0078B508F4BC085
:2022A000508F02E0078B528F538F03E045C04DD0548FE02FF0E0E20FF51F7897F4F197CFE2
:2022C0003323F1F442D0058D0395058F0230A8F1558F2C3118F0808D873010F005E00BC06B
:2022E00090E0820F951F02978C0145E00E943613FD01018F02E0068B02E0008F00E08ACF48
:2023000028D0558F10E0060F151F0B341040D6CF332331F41AD0222381F0578B01E061CF66
:2023200018D0023050F0623040F0508F558F01E003C0508F578B05E0068BE4E00C94B313B9
:20234000F8013089330F308B0895062F0395008F0895022F0395078B0895EFE9F4E000E0B4
:20236000068B068F0895BA93AA93AFE9B4E046E050E09D01205F3F4F8D010E94C01300E000
:20238000FD01068F178D112309F476C023810481193061F40C3C09F088C02F7009F485C06E
:2023A00046E089D001E0FD01078F7FC0528101803185408567817681123069F41C91711768
:2023C000F1F56015E1F54517D1F53217C1F50C3CB1F503E0E8CF143049F51C91711709F073
:2023E00064C0601509F061C0451709F05EC0321709F05BC0013119F0033309F056C058D0B2
:2024000099F4FD010481033311F421E001C020E002E010E00E947E01D2D002E310E0FD0147
:2024200004871587CED0A6D006E0BDCF153061F40C3C19F4022F0F7021F43AD0B1F107E0A8
:20244000B2CF44E038D0C5CF183079F50C3C19F4022F0F7019F42CD091F727C00C917017E4
:2024600071F7601561F7451751F7321741F720D0D9F673D01F77D3CF04810D3A11F00A3DB4
:2024800091F40C910A3A89F401810A3A71F402810A3A59F403810A3A41F4FD01048100A3F7
:2024A00008E201A302C004D0C1F7A991B991089515D00023089550E09D018D010A5F1F4F47
:2024C0000C94C013EFE9F4E001A1002329F00A9501A311F400E000A300A1089549D0AFE945
:2024E000B4E03BD0FD010687178717FF03C082E890E002C0C8019F77A89502E310E004C0EA
:20250000048515850C5F1F4F048715870485158508171907F8F425D03C91231789F7012F9E
:202520001181011769F7048515850E5F1F4F19D03281231729F73381212F207F032F007F49
:202540002017F1F6032F0F7011F01317C9F6A89501E002C0A89500E0F0CE00E310E00C9494
:2025600072010E947201FD0106871787202F08950C94A313FDDFADEAB4E0EFDF0D931C9344
:2025800011978D91912F1F979F7704968238904038F00EE710E81E960D931C931F9707C030
:2025A0001E9611960C5F1F4F1C930E931E971E962D913C9122D003D0C0CE0E9483010C948A
:2025C0009B01BA93AA93A0EAB4E03C912E911E960AD01A97F2DF3C912E911C9604D00E5F9C
:2025E0001F4FEBDF62CF2D933C9313970D911C91089522E330E001D0E2CF00E310E00C9447
:20260000830100008895FECF0FED0DBF01E00EBFC0E8D1E00E94BE13002311F00E94DC1355
:202620000E94C4020E9401130C940113149F102D059F100D049F002D110D08950024112433
:20264000EFE0001F111F001C111C0416150610F0041A150AEA95AAF7001F111FA0010095FC
:20266000109508955195419550400895FF27552312F4F160F7DF112312F4F09507D00E942C
:202680001E13F0FD03D0F1FDEDCF089511950195104008957591659155914591159011FA71
:2026A000259035900895F9DF041B10E003C0F4DF041B150B20E030E005C0ECDF041B150B68
:2026C000260B370BB8F010FC17C045910590E00FF11F0417100540E02407340758F436F466
:2026E00004910024F101E01BF0090994E00FF11F25903590F101099411F4D6F7F1CF31963D
:202700000EF0319650E060E070E045914B3F48F089F34F3F29F04E3F11F075916591559109
:202720004591041B150B260B370B39F318F3E7CFEA92DA92CA92BA92AA929A928A927A9204
:202740006A925A924A92BA93AA939A938A930895EE84DD84CC84BB84AA84998488847F808C
:202760006E805D804C80BB81AA8199818881F0E00FB6F894CE0FDF1F0FBE089501E0089554
:202780000D01D80104C0F90161919F016D93BA0141505040672BB9F7D001089520E006D0A0
:2027A000E9F70895259102D0E9F708952D9301501040202F212B08958CEE97E2FC01059178
:2027C0001491FC013296A591B491FC01349625913491422F432B19F0F901E4DF01C0DEDFAF
:1227E000069617E2823F910748F30895E102E00100005D
:00000001FF
